{"abi":[{"type":"constructor","inputs":[{"name":"_authorizedAgent","type":"address","internalType":"address"}],"stateMutability":"nonpayable"},{"type":"function","name":"authorizedAgent","inputs":[],"outputs":[{"name":"","type":"address","internalType":"address"}],"stateMutability":"view"},{"type":"function","name":"executeTradeSignal","inputs":[{"name":"ticker","type":"string","internalType":"string"},{"name":"action","type":"string","internalType":"string"},{"name":"quantity","type":"uint256","internalType":"uint256"},{"name":"confidence","type":"uint256","internalType":"uint256"},{"name":"signature","type":"bytes","internalType":"bytes"}],"outputs":[],"stateMutability":"nonpayable"},{"type":"function","name":"owner","inputs":[],"outputs":[{"name":"","type":"address","internalType":"address"}],"stateMutability":"view"},{"type":"function","name":"setAuthorizedAgent","inputs":[{"name":"_agent","type":"address","internalType":"address"}],"outputs":[],"stateMutability":"nonpayable"},{"type":"event","name":"TradeSignal","inputs":[{"name":"ticker","type":"string","indexed":false,"internalType":"string"},{"name":"action","type":"string","indexed":false,"internalType":"string"},{"name":"quantity","type":"uint256","indexed":false,"internalType":"uint256"},{"name":"confidence","type":"uint256","indexed":false,"internalType":"uint256"},{"name":"timestamp","type":"uint256","indexed":false,"internalType":"uint256"}],"anonymous":false}],"bytecode":{"object":"0x608060405234801561000f575f80fd5b506040516105cf3803806105cf83398101604081905261002e91610060565b60018054336001600160a01b0319918216179091555f80549091166001600160a01b039290921691909117905561008d565b5f60208284031215610070575f80fd5b81516001600160a01b0381168114610086575f80fd5b9392505050565b6105358061009a5f395ff3fe608060405234801561000f575f80fd5b506004361061004a575f3560e01c80638845c1ae1461004e5780638da5cb5b14610063578063b13fa8b814610092578063e2098e2b146100a5575b5f80fd5b61006161005c366004610399565b6100b7565b005b600154610076906001600160a01b031681565b6040516001600160a01b03909116815260200160405180910390f35b6100616100a036600461043e565b610229565b5f54610076906001600160a01b031681565b5f8888888888886040516020016100d39695949392919061046b565b6040516020818303038152906040528051906020012090505f8160405160200161012991907f19457468657265756d205369676e6564204d6573736167653a0a3332000000008152601c810191909152603c0190565b6040516020818303038152906040528051906020012090505f6101818286868080601f0160208091040260200160405190810160405280939291908181526020018383808284375f9201919091525061029092505050565b5f549091506001600160a01b038083169116146101d95760405162461bcd60e51b8152602060048201526011602482015270496e76616c6964207369676e617475726560781b60448201526064015b60405180910390fd5b7f54e504a3b8a56370da7d4b697df7b5b4662c4bd191e298ce710b0ebb918875238b8b8b8b8b8b4260405161021497969594939291906104b9565b60405180910390a15050505050505050505050565b6001546001600160a01b0316331461026f5760405162461bcd60e51b81526020600482015260096024820152682737ba1037bbb732b960b91b60448201526064016101d0565b5f80546001600160a01b0319166001600160a01b0392909216919091179055565b5f81516041146102e25760405162461bcd60e51b815260206004820152601860248201527f496e76616c6964207369676e6174757265206c656e677468000000000000000060448201526064016101d0565b60208281015160408085015160608087015183515f8082529681018086528a9052951a928501839052840183905260808401819052919260019060a0016020604051602081039080840390855afa15801561033f573d5f803e3d5ffd5b5050604051601f190151979650505050505050565b5f8083601f840112610364575f80fd5b50813567ffffffffffffffff81111561037b575f80fd5b602083019150836020828501011115610392575f80fd5b9250929050565b5f805f805f805f8060a0898b0312156103b0575f80fd5b883567ffffffffffffffff808211156103c7575f80fd5b6103d38c838d01610354565b909a50985060208b01359150808211156103eb575f80fd5b6103f78c838d01610354565b909850965060408b0135955060608b0135945060808b013591508082111561041d575f80fd5b5061042a8b828c01610354565b999c989b5096995094979396929594505050565b5f6020828403121561044e575f80fd5b81356001600160a01b0381168114610464575f80fd5b9392505050565b858782375f8682015f815285878237909401928352506020820152604001949350505050565b81835281816020850137505f828201602090810191909152601f909101601f19169091010190565b60a081525f6104cc60a08301898b610491565b82810360208401526104df81888a610491565b60408401969096525050606081019290925260809091015294935050505056fea26469706673582212202e86575da31607409d55a31cf2c0f3e3acb37b66f8b6a58b1caad94e17c060bb64736f6c63430008140033","linkReferences":{}},"methodIdentifiers":{"authorizedAgent()":"e2098e2b","executeTradeSignal(string,string,uint256,uint256,bytes)":"8845c1ae","owner()":"8da5cb5b","setAuthorizedAgent(address)":"b13fa8b8"},"id":22}